:10000000D8430020C51B0000C11B0000C11B00001D
:1000100000000000000000000000000000000000E0
:10002000000000000000000000000000C11B0000F4
:100030000000000000000000C11B0000C11B000008
:10004000C11B0000C11B0000C11B0000C11B000040
:1000500055020000C11B0000C11B0000C11B0000B5
:10006000C11B0000D1070000E1070000F1070000FC
:10007000010800001108000021080000C11B000059
:10008000C11B0000C11B00004118000051180000F6
:10009000611800007118000081180000C11B0000E9
:1000A000C11B0000C11B0000C11B0000C11B0000E0
:1000B0000000000010B5064C2378002B07D1054B3B
:1000C000002B02D0044800E000BF0123237010BDC4
:1000D000540100200000000064CF0000084B10B560
:1000E000002B03D00749084800E000BF0748036819
:1000F000002B00D110BD064B002BFBD09847F9E731
:10010000000000005801002064CF000064CF000010
:100110000000000070B50020084B98470500084C0F
:10012000FA218900A047074B186007492800A0471B
:10013000064B18600522064B1A6070BD451500007D
:10014000E57B00000400002040420F00000000207A
:1001500010E000E030B5084B1C68084A00258021FB
:10016000490206E0002C04D05460956013680B42ED
:10017000FCD00138F6D230BD0000002010E000E0D5
:1001800030B5084B1C68084A00258021490206E06A
:10019000002C04D05460956013680B42FCD00138E9
:1001A000F6D230BD0400002010E000E00C4B1B68CC
:1001B000002B10D1EFF31083002B09D172B6BFF3DF
:1001C0005F8F0022074B1A700132074B1A7002E052
:1001D0000022054B1A70024A1368013313607047FE
:1001E000700100200800002074010020084B1A68EC
:1001F000013A1A601B68002B09D1064B1B78002BB3
:1002000005D00122044B1A70BFF35F8F62B67047AE
:10021000700100207401002008000020F0B583B0B8
:1002200001AC012565700027A770257021003E20D4
:10023000064EB0478022D205054B9A612770657043
:1002400021000F20B04703B0F0BDC04641030000BD
:100250008044004170B50022154B1A7000231F2501
:10026000144E134C1F2B19D90FE0002100E0124946
:100270000A619B009B59002B00D0984723780133DB
:10028000DBB223700F2BEDD911E0290019400122B8
:100290008A40002109691142E7D1EFE7290019409E
:1002A00001228A40044909691142E0D1E6E770BDA4
:1002B000900F0020940F002000180040044A11788D
:1002C00002230B43137053785BB2002BFBDB7047A8
:1002D0000018004000B583B0124A916940230B43D7
:1002E000936101A900230B7005200F4B984705204F
:1002F0000E4B98470E4A117801230B431370537825
:100300005BB2002BFBDB0B4B19004031002204C316
:100310009942FCD11022084B1A60084B984703B051
:1003200000BDC046000400405D160000D11500006D
:1003300000180040940F002000E100E0BD02000022
:1003400000B583B001AB80221A700A785A704A78DF
:100350009A708A78DA701900014B984703B000BD93
:100360005517000010B5490840230024814201D2EE
:100370000AE01C00091A631C9BB28842F9D9402389
:10038000FF2C01D814800023180010BDF0B55F4683
:1003900056464D464446F0B489B00C00059212AA68
:1003A000117802004A434025A24200D9C6E0002B42
:1003B00051D1020008000021644DA8478346260061
:1003C00000270023002400930194002200233F20F3
:1003D00020218C461F390296039720246442041979
:1003E00003D40D00A540A84604E06446241A0D007D
:1003F000E540A8460C008440A14614001D00A41846
:100400005D4122002B0046465F463E4203D00E006F
:10041000264332002B00029C039D9D420FD801D140
:1004200094420CD8029C039D121BAB414D46009E8A
:10043000019F35433C004646344300950194013802
:10044000CBD20022012300980199121A8B41120C81
:100450001B041A436FE00022012B6CD1630F04933D
:10046000E30098460A0000230021384CA04704000E
:100470000D0000239C46069320339B4601266346CD
:10048000079300230293002200233F21009401954B
:100490000F0020214942791803D430008840844657
:1004A00004E05946C91B3000C84084463100B940B9
:1004B0008946100019008018594102000B0044467B
:1004C0004D462C40A2466446049D2C40A44654460A
:1004D00065462C4303D03400044322000B000098EF
:1004E000019999420AD801D1904207D80098019900
:1004F000121A8B410299484601430291013FC8D22A
:10050000009C019D0299079A8B1ADB0810498B42C7
:100510000BD9069B0133DBB219000693130001339C
:1005200007930829ADD1402508E04025069A082AFE
:1005300004D052031A43059B1A800025280009B0F5
:100540003CBC90469946A246AB46F0BDFD7C0000FF
:10055000FF1F000010B582B004000E4B1B78002B6B
:1005600001D000290DD001A90C7013200A4B984727
:1005700013200A4B9847074B5C7001221A70002029
:1005800006E0044B5B78834201D01D2000E0002090
:1005900002B010BD780100205D160000D1150000EA
:1005A000444B984233D006D8434B98420DD0434B2E
:1005B00098421BD06FE0424B98424AD0414B984240
:1005C00058D0414B984266D132E0012906D000292B
:1005D00063D0022906D0032906D001E03B4867E03A
:1005E000002065E03A4863E03A4861E0012906D01E
:1005F000002954D0022906D0032906D001E036484C
:1006000056E0002054E0354852E0354850E00129DA
:1006100006D0002945D0022906D0032906D001E0E2
:10062000304845E0002043E02F4841E02F483FE0BC
:10063000012906D0002936D0022906D0032906D088
:1006400001E02B4834E0002032E02A4830E02A481C
:100650002EE0012906D0002927D0022906D003293F
:1006600006D001E0254823E0002021E024481FE0D7
:1006700024481DE0012906D0002918D0022906D0FF
:10068000032906D001E0204812E0002010E01F48B6
:100690000EE01F480CE000200AE01E4808E003209E
:1006A00006E01D4804E01D4802E01D4800E01D482A
:1006B0007047C0460010004200080042000C004293
:1006C00000180042001C0042001400420300050014
:1006D00003000600030007000300010003001E00E2
:1006E00003001F000300090003000A0003000B00C1
:1006F00003001100030012000300130003000D00AB
:1007000003000E0003000F00030017000300180091
:100710000300190003000400030008000300100098
:1007200003000C000300160030B587B00C4B6A467E
:1007300032CB32C232CB32C2009B834206D001237D
:100740009A0069465258824203D100E00023D8B291
:1007500003E00133062BF3D1002007B030BDC046C3
:100760008C8F00007047C046F0B50A4B1B78002BF9
:100770000CD1094F094E0A4D0024DE515A1914605C
:100780000433182BF9D10122024B1A708000024B5E
:10079000C150F0BD7A0100207C01002065070000F7
:1007A000D40F002010B582B0040006220549684627
:1007B000054B98472000054B98476B46185602B0EA
:1007C00010BDC046A48F0000BF7D000029070000B7
:1007D00010B5024B1B680020984710BD7C0100201B
:1007E00010B5024B5B680120984710BD7C010020CA
:1007F00010B5024B9B680220984710BD7C01002079
:1008000010B5024BDB680320984710BD7C01002027
:1008100010B5024B1B690420984710BD7C010020D5
:1008200010B5024B5B690520984710BD7C01002084
:10083000F0B55F4656464D464446F0B491B00500CB
:100840000C00160029600800B94B98472268052360
:10085000D20700D564E122681733920700D55FE123
:10086000B4490A6A871C1B3BBB4013430B620FA9A8
:100870002D27F35D0B701430C3B202931800AE4BFA
:1008800098470298AD4B9847F05D0021AC4B9847D4
:10089000F37A6B712423F35CAB712523F35CEB716A
:1008A000F37E2B72337F6B722B6899461800A04B36
:1008B0009847143000220E2306A98C4663441A8000
:1008C000328A02928023DB019A421AD004D8802314
:1008D0009B019A420BD004E1C023DB01029A9A42A9
:1008E0000AD080231B029A4200D1FFE0F9E01023D6
:1008F00006930F3B0793FDE008230693073B0793FE
:10090000F8E033680493F3689B4673690393337E7E
:1009100098462623F35C059373689A46002B15D0FE
:1009200080235B059A4536D12723F35C002B36D113
:10093000336A1F00C0B2834B984701000E2206ABFA
:100940009C4662443800804B984725E00823069374
:10095000002307932723F35C002B0BD0069B009307
:10096000079B0E2206A98C466244B16A306A774F13
:10097000B84711E0336A1F00C0B2724B98470100BC
:10098000069B0093079B0E2206A88446624438000B
:100990006E4FB84700E00020031E00D0C0E0737E19
:1009A000002B02D0B37E4A4693732A68029FD36914
:1009B000002BFCD10E3306AA944663441B884A469A
:1009C0009381049B5A461343039A1343524613439D
:1009D0003B43424612021343059A57071F432723FE
:1009E000F35C002B01D104331F43717E8902337FF6
:1009F0005B021943737F1B0219432423F35C5B04DE
:100A000019432523F25C12041143F37A1943338905
:100A1000FF2B04D0802252041743194305E0F37ED4
:100A2000002B02D08023DB041F432C23F35C002B1C
:100A300003D1474B9B789B0701D580231F432A682E
:100A4000D369002BFCD14B4659602A68D369002B2F
:100A5000FCD14B461F600EAB80221A7000225A70E8
:100A6000DA709A70336B0A93736B0B93B36B0C93BE
:100A7000F36B02930D9300270EAEF9B2BB000AAAE6
:100A80009858002802D12000324B9847431C05D0CB
:100A90003070000CC0B231002F4B98470137042F43
:100AA000EBD10023EB602B616B61AB61EB612B62DF
:100AB000AB626B620022EB85AB853033EA540133C5
:100AC000EA540133EA540133EA542868184B984732
:100AD00004002249224B9847A400224BE5500023F2
:100AE0001EE0102306930023079303E003230693DD
:100AF0000023079333680493F3689B467369039359
:100B0000337E98462623F35C059373689A46002B40
:100B100000D11FE780235B059A4500D104E73EE73B
:100B2000180011B03CBC90469946A246AB46F0BDB9
:100B300029070000000400405D160000D1150000E8
:100B40005505000079160000650300008D030000C4
:100B500000200041A105000055170000450E0000CF
:100B600069070000D40F0020C2791C23002A0ED090
:100B7000C28D92B2173B002A09D10368DA69002AB4
:100B8000FCD1198502211A7E0A42FCD000231800EC
:100B90007047C04682791C23002A30D0828D92B2E1
:100BA000173B002A2BD10268107E400727D5D36956
:100BB000002BFCD1538BDBB298061DD0980703D5D0
:100BC0000223538318331AE0580703D504235383B1
:100BD0001A3314E0D80703D50123538312330EE0F0
:100BE000D80603D510235383323308E09B0603D580
:100BF00020235383213302E0138D0B800023180040
:100C00007047C046F0B54F4680B482B004000191F1
:100C10001720002A49D0E3790530002B45D02768FA
:100C2000FB69002BFCD191460025012620E03A7E8D
:100C3000324204D1012B2AD0013B002BF7D16A1C90
:100C400092B2019B5B5D6179012902D099B21500D6
:100C500005E0A91C8DB20199895C090219432000A5
:100C6000144B98474A46013A93B29946002B16D046
:100C70003B7E3342E3D1104BD9E73A7E0A4208D19A
:100C8000012B08D0013B002BF7D100200DE01220F2
:100C90000BE0002009E0122007E0002005E03B7E89
:100CA0009B07FAD4044B0221E7E702B004BC91464B
:100CB000F0BDC046690B0000FFFF0000F0B55746CD
:100CC00080B484B0040001911720002A38D0A379A1
:100CD0000530002B34D026689246002504272AE0F0
:100CE000327E3A4204D1012B23D0013B002BF7D1B5
:100CF000002302AAD380911D2000134B984700289F
:100D00001ED16B1C9BB202AAD28801994A55617907
:100D1000012905D1A91C8DB2120A0199CA5400E01B
:100D20001D005246013A93B29A46002B03D100208F
:100D300006E0122004E0337E3B42D9D1034BCFE7DB
:100D400004B004BC9246F0BD950B0000FFFF00000C
:100D5000F8B506000C00150007680A4B9847F38D9C
:100D60009BB2002B03D0084B9847052009E0F5857E
:100D7000054B9847B46205223323F254323BBB75CE
:100D80000020F8BDAD010000ED010000F8B5040041
:100D90000D00160007680F4B9847A38D9BB2002BE0
:100DA00003D00D4B9847052013E0A6850A4B9847C2
:100DB000656205223223E2542E3BBB75237A002B59
:100DC00001D02023BB75637A0020002B01D00823BB
:100DD000BB75F8BDAD010000ED010000931C9B0048
:100DE000C3185960302101239340425C134343549C
:100DF0007047C04610B50122014B984710BDC04650
:100E00008D0D000010B51723002A06D0C4790533D4
:100E1000002C02D0024B98470300180010BDC046BA
:100E2000510D0000002902D0012904D007E032232F
:100E3000C05CC0B204E03323C05CC0B200E0172045
:100E40007047C046F8B58000604BC5582C68E36910
:100E5000002BFCD1237EA67D1E403023EB5C31228B
:100E6000AF5C1F40F30722D5EB8D9BB2002B1CD04B
:100E7000AA6A1378DBB2511CA9626979012901D0F1
:100E80009BB204E0517809020B430232AA62DB05EF
:100E9000DB0D2385EB8D013B9BB2EB85002B06D14F
:100EA000013323750133A37501E001232375B307D3
:100EB00009D50223237500223133EA54FB0702D5FA
:100EC0002800EB689847730760D5AB8D9BB2002B69
:100ED0005AD0638BDBB21A0702D43F22134001E0E1
:100EE00037221340002B2DD09A0705D51A22322322
:100EF000EA54303B63831FE05A0705D51E22322394
:100F0000EA542E3B638317E0DA0705D51322322318
:100F1000EA54313B63830FE0DA0605D542223223DF
:100F2000EA54223B638307E020221A4204D0213294
:100F30003223EA54123B63837B0727D528006B6971
:100F4000984723E0238DDB05DB0DDAB2696A0A706E
:100F50006A6A511C69626979012904D11B0A5370BC
:100F60006B6A01336B62AB8D013B9BB2AB85002B8F
:100F70000CD10433237500222E33EA54BB0705D568
:100F800028002B69984701E004232375F30607D551
:100F9000102323752376FB0602D52800EB699847BA
:100FA000B30607D52023237523763B0702D52800F7
:100FB000AB699847330707D5082323752376BB060B
:100FC00002D52B6A28009847F8BDC046D40F0020F0
:100FD00010B5082803D880001B4B1B589F460020E3
:100FE00030E01A4B18692DE0194B1B6A9B059B0FCB
:100FF0001848D84026E0154B586923E0134B1B686E
:10100000022018401ED012491022CB681A42FCD090
:101010000E4B1B685B0714D500200F4B98470B4BFA
:101020009B681B041B0C58430CE05023084AD35CFC
:1010300000205B0706D5054BD86803E0802000023E
:1010400000E0064810BDC046AC8F000094010020AF
:101050000008004000127A0079160000006CDC02E3
:1010600070B50C4C236A01788578427801200240E3
:1010700092014026B343134302002A40D2017F303D
:101080008343134303220A40120203490B401343D4
:10109000236270BD00080040FFFCFFFFF0B55F4613
:1010A00056464D464446F0B483B02E4EB38A9C4615
:1010B000457803785A425A41914683789B46C378D3
:1010C00002799046477B027B0192847B82682648A6
:1010D000426101204A4692009146042292466246AD
:1010E00051468A4394464A4661460A4394464246DC
:1010F0000240D200904608229146624649468A4301
:101100009446424661460A43944603401B0110221E
:101110009046624641468A4313435946014049017D
:10112000202293430B43019A0240920140218B43BA
:1011300013430740FF01802293433B43793A154014
:101140002D020A4F3B402B4304402003084C1C4017
:101150000443B48203B03CBC90469946A246AB46D9
:10116000F0BDC0460008004094010020FFF8FFFFDA
:10117000FFEFFFFF10B5037A9B061A0C43899B050E
:101180009B0D1343194C63608179C37919434388DC
:10119000828813430B434278D201134323600378C0
:1011A000042B0FD1037B9B06028A13431900C389CA
:1011B0001B040F4A13400B43A360216804230B4315
:1011C000236011E0202B0FD1037B9B06028A13437F
:1011D0001900C3891B04064A13400B43034A93605A
:1011E000136804490B43136010BDC04694010020EE
:1011F0000000FF0324040000082803D88000254BCA
:101200001B589F46172044E0234A116A02230B43D0
:10121000136200203DE0204A916902230B43936151
:10122000002036E01C4A118A02230B43138200205F
:101230002FE0194A918A02230B439382002028E071
:1012400016490B68022213430B60134B9A84190052
:101250000E32CB681A42FCD0104A91680E4BD9620C
:1012600052689A6200229A8419001032CB681A429E
:10127000FCD00A4B1B689BB2074A9384002008E00D
:1012800005494422885C022303438B54002000E07C
:1012900000207047D08F000000080040940100201B
:1012A000F0B54F464646C0B48FB0C222D200504B74
:1012B0009A6050494B681E2293431A3A13434B607D
:1012C000023A01AB1A7000244B4DE0B201A9A847C5
:1012D0000134252CF9D10AA80023037083708022E1
:1012E00012028260C3700122027183730621417071
:1012F00043730273414B98470520414B98473C4943
:101300000222CB681A42FCD005AB00210022598092
:1013100099809A71DA713F3159813E39D98103310F
:1013200019705A70374B1B689B0E3F2B00D1203B26
:1013300005A80372B723DB00038207230373324B34
:10134000984704A800254570057085702F4B984775
:1013500006202B4FB8472E4B984701AC012602962A
:101360006570062323702572657221000120294BC8
:10137000994698470120284B9846984766606570C3
:10138000657205232370267221000320C8470320BD
:10139000C0470323237021000020174B98470020EB
:1013A0001E4B98470720B8471149D022CB681340FD
:1013B000D02BFBD10E4A918C80230B439384184A87
:1013C0000023137253729372D37201A901224A60EF
:1013D0004B700B7207330B704A7200200D4B98470D
:1013E00000200D4B98470FB00CBC90469946F0BDBD
:1013F00000080040004000415D1600009D10000004
:10140000F9110000246080007511000061100000D7
:10141000251400004914000001150000D11500003A
:1014200000040040064A916908230B43936101229E
:10143000044B1A7019000B781342FCD17047C04658
:1014400000040040000C004070B5060005000C7858
:10145000240204434B78002B02D08023DB021C4380
:101460004B7A002B02D080231B031C4348680128C1
:1014700018D9431E184210D1022806D9022300228F
:1014800001325B009842FBD800E000221202324396
:10149000150080235B031C4304E0050235438023D1
:1014A0009B021C430B7A002B02D080239B031C431E
:1014B0000F4A53785BB2002BFBDB0E4B98470E4B69
:1014C0001E700B4A53785BB2002BFBDB084B9D6010
:1014D0001A0053785BB2002BFBDB054A516880236E
:1014E0005B020B401C435460044B984770BDC046E0
:1014F000000C0040AD010000080C0040ED010000B0
:1015000010B504000B4A53785BB2002BFBDB0A4B8F
:1015100098470A4B1C70074A53785BB2002BFBDBE1
:10152000044A5368802149020B435360044B984797
:1015300010BDC046000C0040AD010000040C00408E
:10154000ED01000070B504001A4A53785BB2002B1D
:10155000FBDB194B9847194B1C70164A53785BB24A
:10156000002BFBDB134E7068C004C00E144B984771
:101570000500124B1C707668F602F60F114B1C70BA
:101580000C4A53785BB2002BFBDB0A4B9C682402AD
:10159000240C0D4B9847002E07D1012C07D92100B0
:1015A00028000A4B9847050001E00134E540280077
:1015B00070BDC046000C0040AD010000040C0040AE
:1015C000D10F0000080C0040ED010000E57B000099
:1015D00010B50400064B9847064B1C70064A51880C
:1015E0008023DB010B435380044B984710BDC0465A
:1015F000AD010000020C0040000C0040ED010000B5
:1016000010B504000F4B98470F4B1C700F4B5A88B6
:101610001205100F59880E4A0A405A8059880D4AFF
:101620000A405A8019008022D2014B881342FCD113
:1016300006494C880202064B234013434B80064B5D
:10164000984710BDAD010000020C0040000C0040A6
:10165000FFF0FFFFFFBFFFFFED01000010B50C78AA
:1016600024020443024B9847A4B2024B5C8010BD95
:1016700001160000000C004010B50400064B98470E
:10168000064B1C70064B5C882405240F054B9847BD
:101690002000054B984710BDAD010000020C004032
:1016A000000C0040ED0100004515000030B5D37876
:1016B000002B1ED11378802B04D01B0680246402DB
:1016C000234300E0002354780225AC430AD19478E8
:1016D000002C03D18024A402234302E0C024E402AE
:1016E000234341605478013C012C12D8184C23400C
:1016F0000FE041600B041B0CA024E405234383622C
:101700000B0CD024240623438362D378002B18D0FB
:101710001CE00C04240CA025ED052C431C43846222
:101720000C0CD0252D062C431C438462D478002C4D
:101730000CD15B0305D59378012B01D1816100E0C9
:1017400041615378013B012B00D8816030BDC04618
:10175000FFFFFBFF10B503000A00C10900200029AC
:1017600004D15809C00105498C4660441F210B4033
:101770001E399940024B984710BDC04600440041B5
:10178000AD1600007047C04610B5054B9847054B95
:101790009847054B9847054B9847054B984710BD10
:1017A000A11200001D02000085170000D5020000F4
:1017B00085170000931C9B001950022A04D1027E59
:1017C0001023134303760BE0032A04D1027E202367
:1017D0001343037604E001239340027E1343037610
:1017E0000020704770B58000144BC5582B689C7B57
:1017F0002B7E1C406B7E1C40E30705D52800AB68A0
:10180000984701232A689373A30705D52800EB683E
:10181000984702232A689373E30605D528002B69AD
:10182000984710232A689373A30605D528006B698F
:1018300098472B6820229A7370BDC046EC0F002099
:1018400010B50020014B984710BDC046E5170000B9
:1018500010B50120014B984710BDC046E5170000A8
:1018600010B50220014B984710BDC046E517000097
:1018700010B50320014B984710BDC046E517000086
:1018800010B50420014B984710BDC046E517000075
:1018900030B587B001A90C4B0A0032CB32C212CB53
:1018A00012C2019B984206D001239A0001A9525806
:1018B000824203D100E00023D8B203E00133052BBC
:1018C000F3D1002007B030BDF48F0000F0B54F46D3
:1018D0004646C0B489B004000E0090460800924B02
:1018E00098478146914D29001431052206A8904F52
:1018F000B84729001C310A2203A8B8470023A36077
:10190000E36023616361237663764B469A00894BDB
:10191000D450266043469B78082B04D117204A46B2
:10192000D20700D4FBE0237133880520DB0700D504
:10193000F5E0F37B1730DB0600D5F0E033889B073A
:1019400000D5ECE043461B7C002B0CD002A9012300
:101950008B700022CA704246127E0A704B7043465A
:10196000187D754B984743461B7F002B0DD002A96D
:1019700001238B700022CA704246526A0A704B7073
:1019800043461B6AD8B26C4B98476C490B6A4A466F
:10199000520003A8125A13430B6243469B78082B4C
:1019A00006D10B6A4A4601325200125A13430B62A7
:1019B00001A943461B780B7006AB4A469D5C280084
:1019C0005F4B984728005F4B9847434698789B7930
:1019D00002001A43434618899B8803431A431000A8
:1019E00043465B78002B02D080231B0118432168FB
:1019F0007F22CB7B9343FCD130804346587B431EF0
:101A00009841800043469B7B002B01D00123184363
:101A100021687F22CB7B9343FCD1FF3333710028B5
:101A200005D021687F22CB7B9343FCD17071434664
:101A3000987ADB7A002B01D01023184343461B7B96
:101A4000002B01D02023184321687F22CB7B9343B6
:101A5000FCD1B07122687F21D37B8B43FCD12379E9
:101A6000042B05D0082B41D01720002B57D124E0A0
:101A70007F21D37B8B43FCD128334246D35C337424
:101A800021687F22CB7B9343FCD129334246D35C30
:101A9000337521687F22CB7B9343FCD12A334246A6
:101AA000D35C337621687F22CB7B9343FCD12B33ED
:101AB0004246D35C7376002031E07F21D37B8B4399
:101AC000FCD143461B8D338221687F22CB7B93431D
:101AD000FCD143465B8D338321687F22CB7B9343CC
:101AE000FCD143469B8D7383002018E07F21D37B7C
:101AF0008B43FCD143469B6A336121687F22CB7BB9
:101B00009343FCD14346DB6AB36121687F22CB7BE0
:101B10009343FCD143461B6BF3610020FFE709B000
:101B20000CBC90469946F0BD91180000F48F00005F
:101B3000BF7D0000EC0F002055170000000400409E
:101B40005D160000D115000010B502687F24D37B1C
:101B5000A343FCD10379042B05D0082B0BD017200D
:101B6000002B0BD103E0C9B21174002006E089B24A
:101B70001182002002E011610020FFE710BDC04685
:101B80000268D17B1523C90617D413889B070FD58C
:101B90007F21D37B8B43FCD13B3313739373138827
:101BA00002218B43138000687D31C37B8B43FCD1C2
:101BB000118801230B431380002318007047C0468F
:101BC000FEE7C04670B52E4B2E4A9A4203D02E4BEC
:101BD0002B4A9A4204D32D4B2D4A9A4210D31EE031
:101BE0002C4A294B03339B1A9B0801339B0000228C
:101BF000234824498C58845004329A42FAD1EAE7A7
:101C0000254A224B03339B1A9B0801339B00002279
:101C10001F4800211418216004329A42FAD11F4A49
:101C2000FF211F4B8B439360FD3990235B001D4ABE
:101C3000D1501D48C3780324A34302221343C37029
:101C4000C3780C26B34308210B43C370174B987B12
:101C50003025A8430500202028439873987BB04383
:101C600001439973997BA1430A439A73104A5168BF
:101C700080230B4353600F4B98470F4B9847FEE769
:101C80000000002064CF000054010020D823002071
:101C900054010020040000205801002000ED00E065
:101CA0000000000000700041005000410048004169
:101CB00000400041557D0000E9390000F0B547467D
:101CC00080B40C00904600280DD1002A0EDD8F183C
:101CD000084E094D306821002B6898470134A7420F
:101CE000F8D1404603E00120404200E0002004BC5F
:101CF0009046F0BD0810002000100020F0B54746C7
:101D000080B40E0015000138022811D8002A12D024
:101D100000240C4B98460C4F43461868315D3B68D5
:101D20009847002809DB0134A542F5D1200006E0E0
:101D30000120404203E0002001E00120404204BCB9
:101D40009046F0BD08100020041000200300064A51
:101D50001268002A02D10549034A1160024A10683C
:101D6000C31813607047C046AC010020D843002060
:101D7000012040427047C04680239B014B600020F9
:101D80007047C046012070470020704770B582B090
:101D900005000E0000226B46DA80064C6B46991D4A
:101DA0002800A0470028F9D16B4606331B88337002
:101DB00002B070BD950B000070B505008CB2034EEB
:101DC00021002800B0470028FAD170BD690B00003F
:101DD00010B582B06B46DC1D012221000F48104B6C
:101DE000984772B6BFF35F8F00220E4B1A700E4BEE
:101DF0001B7821780D4AD1549B2B03D100220A4B2A
:101E00001A7002E00133084A13700122054B1A7060
:101E1000BFF35F8F62B602B010BDC0465002002013
:101E2000BD0C00000800002084020020B401002046
:101E3000F0B591B08023DB05009300230193FF22CE
:101E400069460A8100228B72CB72012424216846E4
:101E500044540131445401314354013143540A93F1
:101E6000053143540131435405930382C37602760E
:101E70000277427613238376427780235B030393B2
:101E80002F4B0C932F4B0D9301235B420E930F931B
:101E9000E1235B0208932C4D2C4B1D602C4A2D4BEB
:101EA0001A602D4A2D4B1A606A462D4928002D4B89
:101EB00098472D4F3B68986800212C4EB0473B68EF
:101EC00058680021B0472E683000294B98471F23DF
:101ED00018408440274B1C602A68D369002BFCD132
:101EE0003268023313433360174B1B68DA69002AE8
:101EF000FCD15A68802149020A435A600121124AE2
:101F0000D171DA69002AFCD1DA69002AFCD15A6859
:101F1000802189020A435A6001210B4A9171DA69D2
:101F2000002AFCD114490320144B984704220C4B7F
:101F30009A75802252010F4B1A6011B0F0BDC04655
:101F400002001600020017005002002008100020B6
:101F5000B91D0000041000208D1D0000001000209D
:101F60000014004231080000500100208D7F000065
:101F7000A507000000E100E0D11D00006907000096
:101F8000F0B583B0060001916B469D88054C064F65
:101F90002A0031002000B8470028F9D1019803B089
:101FA000F0BDC04650020020050C000070B5204B6B
:101FB0001A78204B1B789A4203D3D31A1E4C2370F5
:101FC00004E01400643CE31A1B4C23701A4B1B788A
:101FD0000024002B2AD09B2B07D9164B1A709C2269
:101FE000154B1A709B2908D804E01A1C8B4200D9A3
:101FF0000A1CD1B2002901D117E09C210D4B1B789E
:102000004C1EE4B2013404190C4D0026EA5C027047
:1020100001309B2B02D00133DBB200E0330084425D
:10202000F4D1044A13700C0000E00024200070BDBD
:1020300084020020B001002085020020B4010020AD
:1020400000B583B06B46D871073301211800024BED
:10205000984703B000BDC046811F00000022024B1C
:102060009A7100207047C0460C1000200020704775
:1020700010B5010012220248024B9847002010BD03
:1020800014100020BF7D0000F0B587B005AC01261C
:102090002670002565700E480E4FB8470C48B847AB
:1020A0000D4B4C22995A023A985A02960195009487
:1020B00002230022094CA047E22805D10448054B21
:1020C00098470748074B9847002007B0F0BDC04627
:1020D00074900000017F00000C1000200D480000EB
:1020E00078900000E17D000000B583B04288114B7C
:1020F000DB8E9A421AD00F4B988F0F4A0F49104B24
:102100009847002805D00F480F4B98470F48104BB1
:102110009847084B9B8F6A46D380074B1B881371E7
:10212000064B00930B4B1B6868469847002003B092
:1021300000BDC0460C000020860200207010002068
:10214000354F000074900000017F0000A89000004F
:10215000E17D00006C100020014B186099807047F1
:102160000C10002010B582B002230193144B009391
:102170000023002213491448144CA047002805D01E
:102180001348144B98471448144B9847144A00219D
:102190000020144CA047144A02210020A04700232D
:1021A00000221C211148124CA047002805D00848E5
:1021B000084B98470F48094B984702B010BDC046DE
:1021C0000C00002088020020A0000020C54E000066
:1021D00074900000017F0000DC900000E17D0000B1
:1021E00028900000B92E0000C89100008400002053
:1021F0007D4500000491000010B503000A000E495F
:10220000088819000D4B9847002805D00C480D4B45
:1022100098470D480D4B9847074B19880C4B188A67
:102220000C4B9847002805D00548064B98470A48AC
:10223000064B984710BDC0460C000020F94E000028
:1022400074900000017F000030910000E17D0000EB
:102250000C100020995000006491000010B584B06B
:102260000023029301936433009300230022012191
:102270000020094CA047002806D00848084B984782
:102280000848094B984705E00448054B984707481C
:10229000054B984704B010BD014600007490000043
:1022A000017F000088910000E17D0000A491000002
:1022B000014B18607047C0466C100020002070472A
:1022C00000207047C078002800D0E2207047C04648
:1022D0000020704710B50078002806D00348044B52
:1022E00098470448044B9847E22010BD74900000C2
:1022F000017F000070930000E17D000010B5040034
:10230000C078002808D00548054B9847A278218856
:102310000448054B9847E22010BDC0467490000069
:10232000017F000084930000E17D0000F8B5040007
:10233000194B9B2292009D180127002618001A00B5
:10234000563A11882288914219D11A78052A01D06B
:10235000082A01D1077012E0072A0FD892000F490E
:102360008A5897461E700E4A1278002A07D00C4AE7
:102370001278013AD2B20A490A7000E006707C3342
:10238000AB42DBD10748084B98472288E1780748E1
:10239000074B98470020F8BD62110020F091000023
:1023A0007013002074900000017F0000BC930000B7
:1023B000E17D0000F8B506000188284B00241A8949
:1023C0008A4204D11A005E321278062A2ED00134D5
:1023D000E4B27C33052CF2D139E0204963011A1BA9
:1023E00092008A18157614005E34072323701C4867
:1023F0001C4B98471C481D4B9847E2252BE018487A
:10240000184B98471A48194B9847144963011A1BEF
:1024100092008A1810005E3008270770F078107557
:10242000B2781C1BA4000C19227614E0B578002D9C
:10243000E5D0D2E70A4E30000A4DA8470C480B4CB5
:10244000A0473000A8470B48A047E22503E0B57835
:10245000002DC2D1EEE72800F8BDC04604110020CF
:1024600074900000017F0000EC930000E17D00000B
:10247000009400002494000010B50100154B1B7857
:10248000DBB2132B12D8134C2378DBB29800C018A0
:10249000C000C318104818182922104B98472378F9
:1024A00023780133DBB22370002311E00C480D4B7D
:1024B00098470D480D4B98470D4B9847E22300284D
:1024C00006D00748074B98470A48084B9847E2232D
:1024D000180010BD6C070020FC130020BF7D000019
:1024E00074900000017F00004C940000E17D00002A
:1024F0003D47000084940000F8B54F464646C0B4FE
:10250000060045883D4B002200241889A84210D1BE
:1025100018005E30007803280BD153019B1A9900F4
:10252000364B5B185E3305221A703579002D34D096
:1025300006E00134E4B201327C33052CE5D128E019
:1025400063011C1BA4002D4B1C195E340423237053
:102550002B482C4B98472C482C4B984770881321BC
:102560002B4B9847051E43D02548264B98472948B2
:10257000264B9847E2253BE0214E3000214DA847ED
:102580002548224CA0473000A8472448A047E22510
:102590002EE03379002BD3D1EEE71948194B984739
:1025A0001D481A4B98473278144B984667013B1BDD
:1025B0009B0043441A7532791A7618003630310080
:1025C00022311022164B99469847381B8000404410
:1025D0004630310032311722C847381B8000404452
:1025E0001A30B11D1C22C84705225E234146CA5439
:1025F00028000CBC90469946F8BDC0460411002046
:1026000074900000017F00009C940000E17D0000B8
:102610005D470000BC940000D894000004950000C1
:10262000BF7D0000F0B55F464E464546E0B49AB027
:102630000500837A9946002B00D0C3E06C4E300031
:102640006C4FB8472B796A79A97968780290A87895
:102650000190E87800906848684CA0473000B8477F
:1026600029896748A047122229006648664B984787
:102670000495072229006548654B984700282DD00E
:102680002B78022B2AD15022002106A8614B9847B3
:10269000614F00230BE0591C147806A8C454013282
:1026A0008BB29E42F7D17C37331E502B04D01E00D4
:1026B0001036B6B23A00EEE706AA29000520574BBD
:1026C00098478146002800D18BE04948494B9847FC
:1026D00053484A4B9847E223994682E0514E0024E2
:1026E0004B4B9B46E7B20594072204993000D8472C
:1026F000002809D1059A53019B1A9A00494B9B184F
:102700005E3302221A7041E001347C36052CE9D197
:1027100062E05E23434AD35C002B10D117E03448BB
:10272000344B9847404B1978C9B24048334B9847CF
:10273000288913213E4B9847E223994651E03D4AB0
:10274000012301271C001178002919D101E0002480
:10275000002763019846181B8000324E8019122210
:102760002900294B9847304A13780133DBB21370A4
:1027700043461B1B9B00F3185E3302221A7005E0D0
:10278000791CCFB201337C32052FDBD1072229001F
:102790001E481F4B9847002807D17B01DB1B9B007D
:1027A000204AD31805229A7406E07B01DB1B9B00AC
:1027B0001C4AD3180A229A74072200211348154B89
:1027C00098470EE00A480B4B9847A97A1A480B4BDA
:1027D00098470023994604E0134B1B78052B98D1AA
:1027E0009DE748461AB01CBC90469946A346F0BDEA
:1027F00074900000017F000034950000E17D00002E
:1028000078950000B0130020BF7D00007007002005
:10281000A17D0000D17D00004A110020BD470000CD
:10282000909500000411002070130020B495000062
:102830005D470000DE110020F0950000F8B5037838
:10284000002B5CD1314D0024461C314F1022290051
:102850003000B847002841D00134E4B27C35052C63
:10286000F4D14CE05E232B4AD35C002B10D116E050
:1028700029482A4B98472A4B1978C9B229482A4B2C
:1028800098472A4B18891321294B9847E2203BE0AF
:10289000284A01231C001178002919D100E00024E6
:1028A0001C4F65012E1BB600BE1912221F493000B5
:1028B000214B98471A4A13780133DBB213705E3606
:1028C000022333702C1BA4003C190833A37403E0CB
:1028D00001337C32052BDDD1002015E00D4863016A
:1028E0001A1B9200821811005E3102250D700A2118
:1028F0009174100012220D490F4B9847ECE7084BDA
:102900001B78052BAED1B3E7F8BDC0464A110020B5
:10291000A17D00000411002074900000017F0000E0
:1029200070130020B4950000E17D0000B01300207A
:102930005D470000DE110020BF7D000010B500885B
:10294000782301220121024CA047002010BDC0467F
:102950007D470000F0B557464E464546E0B484B08A
:10296000040005886A490A0000231089A84216D18C
:1029700010005E300078022811D165485A01D61A3D
:10298000B60086195E3606223270F93213405A01BB
:10299000D21A92008218127DD00705D41BE00133B1
:1029A0007C32052BE1D11EE0E078002813D05901DC
:1029B000C91A8B005649C9181A312088554B9847B7
:1029C000002800D19EE05448544B98475448554B3A
:1029D0009847E22096E05A01D31A9B004C4AD3183C
:1029E0005E3302221A70258800220023160008890F
:1029F000A8420DD108005E300078022808D15201AB
:102A0000921B9600424A92195E320321117005E032
:102A10000133DBB201327C31052BE7D101AA002161
:102A20001172E07890700120507003301070D170F6
:102A30001F005A01D21A92003549525C022A04D171
:102A400001AA03219171D17103E001AA01219171C1
:102A5000D17101AA1021517111717A01D21B92001A
:102A60002B498A18127E402A34D15A01D31A9B006E
:102A70009A461E0060367618554668356D182A4B02
:102A800099460F239846C847434618403070C847B8
:102A900043461840B0740136AE42F4D15646703603
:102AA0001B4AB618204B99460F239846C847434601
:102AB000184028700135B542F8D11B4B98477B016F
:102AC000DB1B9B00124AD3181A00703210807A3335
:102AD00010221A707A01D71BBF0060370C4ABA184F
:102AE0002088002301A9114CA04700280AD001AB7F
:102AF00000229A705A700848084B98470C48094BB6
:102B00009847E22004B01CBC90469946A246F0BD0E
:102B1000041100202D5C000074900000017F000073
:102B200018960000E17D0000157F00007959000033
:102B300030960000F0B55F4656464D464446F0B428
:102B400085B083460488484A002100231089A042AA
:102B50000DD110005E300078022808D14A01521AC7
:102B60009500414A52195E320321117005E001338C
:102B7000DBB201317C32052BE8D101AA00211172B0
:102B80009170517003201070D1701F005A01D21A39
:102B900092003549525C022A04D101AA03219171A5
:102BA000D17103E001AA01219171D17101AA102113
:102BB000517111717A01D21B92002B498A18127E31
:102BC000402A31D15A01D31A9B009A461D00603524
:102BD0006D18544668346418244B99460F26C8472C
:102BE00030402870C8473040A8740135A542F6D15E
:102BF000554670351C4AAD181C4B99460F23984614
:102C0000C8474346184020700134AC42F8D1174BF6
:102C100098477B01DB1B9B00134AD3181A007032C4
:102C200010807A3310221A707A01D71BBF006037E8
:102C30000D4ABA185B461888002301A90C4CA0471E
:102C400000280AD001AB00229A705A7009480A4B3A
:102C500098470A480A4B9847E22005B03CBC90468A
:102C60009946A246AB46F0BD04110020157F000036
:102C70007959000074900000017F00005C9600000C
:102C8000E17D0000F0B585B0050006223D4902A8AF
:102C90003D4EB04701AC042229002000B047E37844
:102CA000002B61D139483A4B98473A483A4B9847FC
:102CB00000273A4C3A4E2000B047021E1AD1334F3B
:102CC0003800334EB0473748334CA0473800B04740
:102CD0003548A04728881321344B98470300E22049
:102CE000002B4CD029482A4B984731482A4B98470B
:102CF000E22044E03038C3B2092BDCD802ABFA54EE
:102D000010002C4B98470137062F26D0D3E71F48D9
:102D10001F4B98472848204B98470024254E02AB6C
:102D2000E05CB0470134062CF9D101AB99782888D2
:102D300002AA224B9847002821D01448144B9847E8
:102D40001F48154B9847002019E01048104B984732
:102D50001C48114B9847002011E00C480C4B984739
:102D600019480D4B9847D8E701AB5A8880235B0080
:102D70009A42CCD001AB9B78012BE6D0002005B065
:102D8000F0BDC04618930000BF7D000074900000A5
:102D9000017F000084960000E17D00003075000096
:102DA00041330000AC960000B89600005D4700007B
:102DB000BC940000157E0000CC960000855B0000EE
:102DC000049700001C97000038970000F8B5060033
:102DD00005882F4B0022002410001989A94216D122
:102DE00019005E310978012911D929495201101AB7
:102DF000800008185E30062303706201131B9B00DD
:102E0000CB1870331A8873889A4213D106E00134C4
:102E1000E4B201327C33052CDED10BE06101091BE9
:102E200089001B4B59187231301D0822194B9847E5
:102E3000002815D0184F3800184EB0471848194DC3
:102E4000A8473800B0471848A84763011C1BA400D6
:102E50000F4B1C1920890521144B9847E22016E0DE
:102E60006201131B9B00603309495B18141BA4000B
:102E70000C19217D308801220D4CA047002806D076
:102E80000548064B98470B48064B98470020F8BD6D
:102E900004110020A17D000074900000017F00005B
:102EA0004C970000E17D0000849700005D47000022
:102EB000F15C0000DC97000030B5002A47D00629FD
:102EC00047D88900284B5B589F46284B05240AE0C9
:102ED000274B012407E0274B052404E0264B01245F
:102EE00001E0264B0524002816D1196800290BD1D2
:102EF00006E01D000433181F0068002806D100E01A
:102F00001D002A6001212CE0043300210131C9B2E7
:102F1000A142EED3002124E00021012821D119682B
:102F20008A420CD106E01D000433181F006882425B
:102F300007D100E01D0000232B60012111E00433C4
:102F400000210131C9B2A142EDD3002109E00021E5
:102F500007E0002105E00A4B0524C4E7094B0124E2
:102F6000C1E7080030BDC04610920000F0100020FC
:102F7000EC100020741300203C190020881300205E
:102F80009C130020F8130020F0B5474680B490B0A1
:102F900005006A4A0023136053609360D360136195
:102FA000674A136053609360D3601361654A13608E
:102FB00053609360D3601361634A1360634A136084
:102FC000634A136053609360D3601361614A136076
:102FD000614C9B239B009846A044604F40267C2276
:102FE00000212000B84723005E3300221A702676A5
:102FF0007C34A045F3D15A4B1A705A4C5A4B63603B
:103000005A4B236001232C32A3540132A354584B52
:10301000A360584BE360584B2361584B6361584B96
:10302000A361584BE361584B2362584B6362584B82
:10303000A36201210120574B98475748574B9847A7
:103040005748584B98472000574B984700280AD0BC
:10305000514F3800514EB0475448524CA0473800A9
:10306000B0475348A047534A00210020524CA04784
:10307000524A02210020A04708215148514B98474D
:10308000002805D04448454B98474F48454B984742
:1030900007224E49083104A84D4B9847002D0CD10A
:1030A00004A84C4B984704AD002806D03A483B4B47
:1030B000984749483B4B984704AD3748374B9847AA
:1030C0002B796A79A9792878039068780290A87892
:1030D0000190E87800904148324CA04706AC0A23A2
:1030E00023703F4B63800722290007A8384B98477D
:1030F0000023E37623776377A377E37723846384DE
:1031000080239B00A3842000364B9847002805D0DD
:103110002148224B98473448224B98472800334B8C
:103120009847002805D01C481C4B984730481D4B39
:10313000984710B004BC9046F0BDC04688130020EC
:103140009C130020F0100020F8130020EC10002049
:10315000741300203C19002004110020D17D0000D0
:1031600070130020C4130020E20400008C02002031
:10317000213900002D3900004D390000713900005F
:1031800091390000A138000085380000D5380000D2
:10319000153900001938000074900000017F00000C
:1031A000FC970000E17D0000C1430000149800007E
:1031B0003498000068990000B92E00004893000080
:1031C000709800003D4200007C98000018930000B9
:1031D000BF7D00009942000094980000AC98000068
:1031E000983A0000BD420000E49800002945000024
:1031F00008990000F8B50D003A286CD88300394AC8
:10320000D3589F4684000026374FBB59002B04D06B
:103210001B59002B01D0280098470436142EF4D1F6
:103220005FE01338C4B2A4000026304FBB59002B16
:1032300004D01B59002B01D0280098470436142EC7
:10324000F4D14EE01D38C4B2A4000026284FBB596B
:10325000002B04D01B59002B01D0280098470436BE
:10326000142EF4D13DE02738C0B2224B1B68002B4E
:1032700037D08000C358002B33D00800984730E087
:103280002D38C0B21C4B1B68002B2AD08000C358BD
:10329000002B26D00800984723E03638C4B2A4009B
:1032A0000026164FBB59002B04D01B59002B01D010
:1032B000280098470436142EF4D112E03838C0B2F2
:1032C0000F4B1B68002B0CD08000C358002B08D07C
:1032D0000800984705E00B4D28000B4CA04728003C
:1032E000A047F8BD2C920000881300209C130020FA
:1032F000F0100020F8130020EC10002074130020C0
:103300003C19002074900000017F000010B51422C9
:1033100007490848084B9847041E05D1054B187803
:103320000349064B984700E0E224200010BDC04648
:1033300030170020F4130020C13B0000F5310000DD
:10334000F0B583B0040000226B46DA80094E0A4DC6
:103350000A4F02E0013C0120B8476B46991D30003E
:10336000A847002801D0002CF4D16B46987903B00F
:10337000F0BDC04678070020950B000081010000D9
:103380007047C04610B5024B1878024B984710BDE5
:10339000AC070020F5380000F8B506000D00084C19
:1033A000084F2A0031002000B8470028F9D1044D09
:1033B000054C01212800A0470028FAD1F8BDC046DD
:1033C00040190020050E0000250E000010B5010078
:1033D0000148024B984710BD40190020F50D000030
:1033E00030B591B08023DB05009300230193FF22C9
:1033F00069460A8100228B72CB72012124206C461F
:1034000021540130215425316354013163540A930E
:10341000053163540131635405932382E3762276A8
:10342000227762761323A3766277E1235B02089307
:1034300080235B0303931C4B0C931C4B0D930123C4
:103440005B420E930F931A4D1A4C6A461A49280094
:10345000A0470028F9D1164D2C682000174B98473B
:103460001F2318401E3B8340154A13602A68D36906
:10347000002BFCD122680233134323600C4C012241
:1034800010492000104DA847002210492000A847ED
:103490003122A15C03230B43A3540D480D4B9847E5
:1034A000002011B030BDC0460300280003002900F1
:1034B000401900203108000000180042A507000054
:1034C00000E100E085330000DD0D000081330000E5
:1034D000AC070020CD33000030B591B0464D2C68CC
:1034E0002000464B98471F2318401E3B83408022F4
:1034F00043498B502A68D369002BFCD123680222F0
:10350000934323603C4D2C6820003C4B98471F237D
:1035100018401E3B8340802239498B502A68D3696A
:10352000002BFCD12368022293432360324B1A689C
:10353000D369002BFCD1012121608023DB0500939E
:1035400000230193FF226846028100228372C37226
:1035500024206C462154013021542531635401311B
:1035600063540A93053163540131635405932382F4
:10357000E3762276227762761323A3766277E123BD
:103580005B02089390235B0303931E4B0C931E4B2B
:103590000D931E4B0E931E4B0F93174D1D4C6A46F9
:1035A0001D492800A0470028F9D1134D2C682000A0
:1035B000124B98471F2318401E3B8340104A13604C
:1035C0002A68D369002BFCD122680233134323609D
:1035D000094C012211492000114DA8470022114930
:1035E0002000A8473122A15C03230B43A3540E48BB
:1035F0000E4B984711B030BD40190020A5070000C0
:1036000000E100E0030004000300050003000600E1
:103610000300070031080000000800428533000065
:10362000DD0D000081330000AC070020CD33000029
:1036300010B50248024B984710BDC046AC070020A9
:10364000CD33000010B5014B984710BDAD0100000F
:1036500010B5014B984710BDED01000010B5024BAD
:103660001B68984710BDC0467819002030B58FB050
:1036700004003A4B98473A4B5B6A002B69D1012111
:10368000374B5962374B1C6001AC0023237000227A
:10369000A380A27123816270A272E2722273A2736C
:1036A00022746361A3612277236263622385638549
:1036B000A38561730833A3702B4D22002B4928008A
:1036C0002B4B984720782B4B9847FA2189002A4B9F
:1036D00098472A4B186000212800294B98472A68F0
:1036E0007F21D37B8B43FCD1118802330B431380A2
:1036F0001D4B1A687F21D37B8B43FCD180335371E0
:10370000194C00221F4920001F4B984720681F4B6F
:1037100098471F4B1B5C1F2213401E3A1100994013
:103720001C4B1960617E01230B43637623685A7337
:1037300001AB18780F4B9847094D28622B0007CC36
:1037400007C307CC07C322681A60134B98472800A9
:1037500002E0114B984700200FB030BDAD010000D2
:10376000B400002078190020A01900200030004289
:10377000CD18000045150000E57B000080190020F1
:10378000491B00005D360000B517000091180000CD
:10379000B499000000E100E0ED01000010B50A4B13
:1037A0001B685943C943094C2000094B98472268BC
:1037B0007F21D37B8B43FCD113717F21D37B8B4340
:1037C000FCD14033537110BD80190020A019002096
:1037D000491B000010B5074B1A687F21D37B8B4330
:1037E000FCD1803353710348034B98470022034BAD
:1037F0005A6210BDA0190020811B0000B4000020F7
:10380000044B1A687F21D37B8B43FCD180335371E7
:103810007047C046A0190020F0B583B0144B187053
:10382000CF23012821D1134B984701AC0026A67065
:103830000127277002236370210027200E4DA8471F
:1038400021002120A8476770A6702770210006205C
:10385000A8474022094B9A6126706770A670210024
:103860000720A847064B98470023180003B0F0BD77
:10387000B40700201501000041030000004400418E
:10388000E133000010B5044B1B78012B02D189B243
:10389000024B984710BDC046B40700209933000082
:1038A000002809D1012903D10222094B9A610EE0B7
:1038B0000222074B5A610AE0012808D1012903D1ED
:1038C000034B80229A6102E0014B80225A617047CB
:1038D0008044004110B5044B1B78012B03D1034BEE
:1038E0001860034B984710BDB4070020B0070020B4
:1038F0003136000010B5054B1B78012B04D1044B69
:103900001B68002B00D0984710BDC046B4070020AC
:10391000B007002010B5014B984710BDD934000006
:1039200010B5014B984710BD6D36000010B504006E
:10393000034B98472000034B9847034B984710BD13
:1039400045360000D53700005136000070B5040040
:103950000D00044B984729002000034B9847034B68
:10396000984770BD453600009D3700005136000075
:1039700010B50400034B98472000034B9847034BB6
:10398000984710BD45360000013800005136000050
:1039900010B5002802D0034B984702E00120024BEB
:1039A000984710BD810100005501000000207047BC
:1039B00010B5024B9847002010BDC0465D220000A4
:1039C00070B503799DB2002B0AD00468013DADB2F9
:1039D00001356519034E2078B0470134AC42FAD165
:1039E00070BDC04641200000F0B583B01D4B984724
:1039F0001D4B984796211D481D4B984700201D4B95
:103A0000984700201C4B98471C4B98471C4A0021A4
:103A100000201C4B98471C481C4B98471C4B1B789C
:103A2000002B1CD01B4E1C4D104CB0476B46D81DB4
:103A3000002303700121A84700280CD06B460733F0
:103A40001B782370154F01233B8001212000144B6C
:103A5000984700233B800E4B1B78002BE5D10020BC
:103A600003B0F0BD89170000311E0000C41900200A
:103A700059210000892F0000652100005D2200000F
:103A8000BC990000B92E0000C1390000B12200002D
:103A9000DC0000200D330000AD1F0000B607002041
:103AA000F921000070B50C4D2C68002C13D026684D
:103AB000E2602E600025094A238113682560A080FA
:103AC000E180AB4201D1146005E01A68002A01D000
:103AD000131CFAE71C6070BD600800205808002025
:103AE0000A4B0022191C10B51868094B9C18D050BD
:103AF0001032201CA02AF8D190330B60054BA13A5C
:103B00005A801A8000229A60DA6010BD6008002096
:103B1000B80700205C1A002038B5204C051C081C92
:103B20002188231CA9420ED1A18881420BD10123F7
:103B30005B422380A2601A4B628801219A422BD1FA
:103B4000184B98471CE05988A9420CD199888142AA
:103B500009D10121494259809968002901D19A600F
:103B6000EEE7DA60ECE7104B9D420FD00F4B9D4221
:103B700008D00F4B00219D420ED1101C0D4B9847D1
:103B8000012109E0111C0C4B002202E0111C002253
:103B90000A4B984741424141081C38BD5C1A00203D
:103BA000FFFF0000DD570000130E0000150E00009F
:103BB000010E00009D6200006D640000456500007C
:103BC0000023F0B50D1C85B0029003920370B84B32
:103BD0000398984700230193B64C2368002B04D127
:103BE000B54B98470190D028F6D1B44B9847019B2C
:103BF000D02B00D18BE223681A68D9682260DA885A
:103C00000092AF4A9C88106813601860019B002BDB
:103C100000D07CE2AB4B9C4208D1009BA34200D079
:103C200065E23823029A1370296070E2009BBB2B77
:103C300025D1BB2C23D16B469B88AB808B784A78EF
:103C40001B02CC78087913434A799F49AC702B80CA
:103C50008B4206D89D4A93420BD29D4A934208D08C
:103C600009E09C498B4206D113020343AB80372302
:103C700002E0362300E00023029A137047E2964BDD
:103C80009C4200D1A2E100D983E0944B9C4200D138
:103C9000FDE13CD8924B9C4200D1FCE116D8914BFF
:103CA0009C4200D1D5E104D83826B44200D12CE2A0
:103CB0001DE28D4B9C4200D1D1E1FE33FF339C428B
:103CC00000D014E200982A1C884B94E1884B9C4257
:103CD00000D1D0E10DD8874B9C4200D1C5E1864B85
:103CE0009C4200D003E200982A1C844B984714267B
:103CF0000BE2834B9C4200D1C3E1824B9C4200D03B
:103D0000F5E100982A1C804B98471826FDE17F4B6F
:103D10009C4200D1CCE11ED87D4B9C4200D1CEE12B
:103D20000DD87C4B9C4200D0E1E100982A1C7A4BD4
:103D30009847A988061C794B28889847E5E1784B75
:103D40009C4200D1ADE1774B9C4200D0CFE100987E
:103D50002A1C754B4FE1754B9C4200D12AE109D8D2
:103D6000083B9C4200D19EE0714B39269C4200D119
:103D7000CBE1BCE1D1231B019C4200D120E16D4B82
:103D80009C4200D0B3E1081C6B4B291C98470F26BE
:103D9000BBE16A4B9C4200D135E13DD8684B9C4267
:103DA00000D152E119D8674B9C4200D11AE107D8E3
:103DB000033B9C4200D09AE100982A1C624B1AE116
:103DC000624B9C4200D107E1614B9C4200D08EE1E6
:103DD00000982A1C5F4B98476FE15F4B9C4200D1D3
:103DE00006E10BD85D4B9C4200D12AE15C4B9C4222
:103DF00000D07CE100982A1C5A4BFCE05A4B9C42B4
:103E000000D1FAE0594B9C4200D070E100982A1C86
:103E1000574B98470E2678E1564B9C4200D104E15F
:103E200020D8554B9C4200D105E10DD8534B9C4204
:103E300000D1EEE0524B9C4200D058E100982A1C81
:103E4000504B9847122660E14F4B9C4200D1E6E070
:103E50004E4B9C4200D04AE1081C4D4B291C984710
:103E60002A2652E14B4B9C4200D134E10DD84A4BFB
:103E70009C4200D129E1494B9C4200D037E1009897
:103E80002A1C474B984730263FE1464B9C4200D1C5
:103E900027E1454B9C4200D029E100982A1C434B66
:103EA0009847322631E1081C414B291C91E0C0465D
:103EB0006D57000058080020E95700009157000096
:103EC00060080020FFFF00001E2000001D200000F1
:103ED000030C00001F2000001C0D00000C0C000053
:103EE000020C0000020A0000030A0000B97500007D
:103EF000060C0000040C0000050C0000A574000076
:103F0000070C0000090C000099760000170C000057
:103F1000120C00000D0C00006575000021740000FB
:103F2000130C0000150C000069500000080D000083
:103F3000010D0000150D0000717100001B0E000046
:103F40000F0E0000030E000071600000060E00005E
:103F50000A0E000005690000150E0000110E000099
:103F6000130E000045650000170E0000190E00003A
:103F700049680000270E0000210E00001C0E000002
:103F80001D0E0000256A0000220E0000250E000014
:103F9000AB6A0000051B0000011B0000031B0000B2
:103FA000A7790000061B0000081B0000BF79000075
:103FB000D96D0000081C5B4B291C98470426A4E01F
:103FC000081C594B291C984701269EE0081C291CF7
:103FD000564B9847061C98E000982A1C544B98476B
:103FE000112692E0081C534B291C984706268CE0AA
:103FF0002A1C0098504B9847ECE700982A1C4F4B1E
:1040000098470D2681E000982A1C4D4B98470B26B7
:104010007BE000982A1C4B4B9847102675E0081C43
:10402000494B291C984728266FE0081C474B291C40
:104030009847292669E0081C454B291C98472726E4
:1040400063E000982A1C434BD5E700982A1C424B9A
:10405000D1E7081C414B291C98472B2655E0081C2A
:104060003F4B291C98472C264FE000982A1C3D4BBB
:104070009847132649E000982A1C3B4B9847152681
:1040800043E000982A1C394B984716263DE00098DB
:104090002A1C374BAFE700982A1C364B984723263B
:1040A00033E0009B081C1F0A2F80291C324B90E72D
:1040B000081C009A291C314B98473A2625E00098A5
:1040C0002A1C2F4B984720261FE000982A1C2D4BB6
:1040D0009847332619E000982A1C2B4B9847342622
:1040E00013E000982A1C294B984735260DE0C5227D
:1040F000274E28495200284B37682848B84733686C
:1041000027480099221C98470026029B1E70029B9C
:104110001B783A2B03D1019B002B00D157E5019866
:1041200005B0F0BDBD6D0000797000009571000014
:10413000A9690000C56300006D640000A567000068
:104140005D690000736900003D6A00006B6A000051
:10415000816A0000A9680000D3680000755800005B
:10416000A158000069740000ED7400003175000072
:104170006575000089760000FD4F00002D5000009D
:10418000D97600009D790000AD790000B379000078
:10419000EC000020369A0000089A0000199A0000EE
:1041A0005D9A0000F7B50E4900240B680F1C1E1C19
:1041B0000C4A15680192002B0ED09A881968824229
:1041C00007D1002C01D0216000E00E1C1D601D1CD9
:1041D000231C1C1C0B1CEEE7019B3E601D60F7BD01
:1041E0005808002060080020F7B5124A00901368B4
:1041F00011481F1C0021844604680192002B14D032
:10420000D888009A1D68060A96420BD1FD26064002
:104210000C2E07D1002901D00D6000E02F1C1C607E
:104220001C1C0B1C191C2B1CE8E7019B1F60634620
:104230001C60F7BD580800206008002038B5002831
:1042400002D04B1E1F2B0BD90D4C0E49F7220E4BE3
:104250000E482568A84723680D489847CF200DE0F1
:104260000C4A131CAA33198000231C1CC55CAC34F7
:1042700001331555DCB28C42F7D3002038BDC0465F
:10428000EC000020D09A0000219D0000199A000047
:104290001F9B0000FC1A002010B5041CCF20002C2E
:1042A00006D0044BCE38211C9847034B1B79237052
:1042B00010BDC046816C0000FC1A0020F0B50679E4
:1042C00089B0041C032E0CD9A722334D3349520068
:1042D000334B2E683348B04721792B6832489847D2
:1042E00020E003780F2B0DD954222B4D2B49FF32A0
:1042F0002B4B2E682B48B0472B6821782B489847CA
:10430000E02546E08023878C9B009F420CD95A22EF
:10431000214C234B23482149FF322568A8472368B5
:1043200023489847CF2534E0C57F837FAD015B01EB
:104330001D43C37E1D43437F1B011D43037F9B0021
:104340001D431C4BEDB21E710079032809D803F000
:104350003FFC02040606002302E0012300E00223E2
:104360002371231C0B3361880793237920780093F2
:104370000195258C621D0295658C079B039504971A
:104380000D4DA8472671051C211C0A4826220B4BFF
:104390009847281C09B0F0BDEC000020D09A00001E
:1043A000929A0000199A0000329B0000509B000076
:1043B0006D9B0000FC1A00205D6B0000BF7D0000BB
:1043C0007FB5041C46490B22464B01A89847201C88
:1043D000454B9847051C041E09D0444C444B4548A6
:1043E00045492D222668B0472368444872E0444B73
:1043F0009847231C051E09D03C4C3D4B3D483E4987
:1044000033222668B04723683E4863E001213E4AD4
:1044100049429A1812335181902BF7D13B4C813B82
:1044200023703B4B3B4A6380002323710133581EAA
:1044300019010143023311700132212BF7D180227F
:104440009200A284221C002373321370221C723249
:104450001370221C76321370221CCC321380211C64
:10446000A022D03152000A80211CCE310A80221CA9
:10447000D2321380FA21221C4900D4321180221C2E
:10448000D632E37623776377A377E3772384638455
:104490001370201C204B9847051E09D0134C144B59
:1044A000144815495D222668B04723681B4811E06F
:1044B00007237434237001A80B21194B9847051E5C
:1044C0000AD00A4C0A4B0B480B4966222668B047B3
:1044D00023681448291C9847281C04B070BDC046A6
:1044E000879A0000BF7D000019560000EC000020F4
:1044F000389D0000199A0000D09A0000979B000098
:10450000CD6A0000B39B00006C1A0020FC1A00204A
:10451000983A0000071B0020BD420000CC9B000021
:104520003D420000EF9B000038B5451C031CCF2026
:10453000002D18D01A78032A15D8012A02D15A78EA
:10454000002A10D01C1C291C0622074B074898473C
:10455000237807480371074B98472378002B02D133
:10456000281C054B984738BDBF7D0000011B00206B
:10457000FC1A0020BD420000C95E0000F8B5844668
:104580000F1C161C1C1C002802D1E220002A2BD074
:10459000CF201F2F28D81F2C26D86346002B0ED0E3
:1045A0001248134D002F04D1391C1F22114B98477C
:1045B00003E061463A1C104B984772352F70301E4D
:1045C00012D00B4D0D48002C07D1211C1F22094B86
:1045D000733598472C70201C06E0311C221C064BBA
:1045E0009847002073352C70F8BDC046301B002062
:1045F000FC1A0020D17D0000BF7D00004F1B002071
:10460000F0B591B01F1C16AB1D8817AB1B880D9120
:104610000E9318AB1B78041C0F93424B161C73337C
:104620001B78CF200C93012C03D10E9B002B76D14D
:1046300024E0042C73D88023DB019D426FD8002C2A
:1046400002D11F2D6BD903E09F2D01D8012C66D11B
:10465000002F09D00D9BCF20013B012B5FD9012CEE
:1046600002D1002D00D120352F4B9847011C002E80
:1046700043D03378601E002B09D13BE08023DB015F
:104680009D424CD8002E4AD0002FE3D12BE00123CD
:1046900003283AD90D20721C02E00E20321EFAD1F6
:1046A000204C743426780724002E00D0341C00924D
:1046B0000D9A039404921B4A019502950597723254
:1046C00012780E9C0692194A07920C9A0892184A80
:1046D00009926422624392B20A920F9A154C0B928D
:1046E000154AA0471BE0002DBED10F4B984720254F
:1046F000011CBEE70328CDD806E0601E032803D9BD
:10470000331C0D20321CCBE7002303F057FAC606FA
:1047100004020F20C2E700220C920C20BEE711B069
:10472000F0BDC046FC1A002061700000301B002064
:104730004F1B00204D6F0000983A000010B5054B4C
:104740009847041E03D1D120034B00019847201C39
:1047500010BDC046596D0000A541000038B5041CCD
:10476000044B081C211C9847051C034B201C984730
:10477000281C38BD7D630000E941000070B5094C7C
:10478000A047041E0BD0D022074D0849084B09480A
:1047900092002E68B0472B680748211C9847201CC0
:1047A00070BDC04659680000EC000020D09A00009F
:1047B000A89A0000199A00000E9B000010B5CF23A4
:1047C00000280AD0002908D0002A06D00C78022C34
:1047D00003D1034B013198470023181C10BDC0467C
:1047E00001710000CF23022801D8024B1B5C181C6A
:1047F0007047C046449D0000831EDBB203200E2B91
:1048000001D8014AD05C7047C19A00007FB5141CE2
:1048100008AA0D1C02CA061C0AA8127800780029F2
:1048200009D11B4C1B4B1C481C49DF222568A8479B
:1048300023681B480AE0002B0BD1154C154B16487A
:104840001649E5222568A847236816489847CF20CF
:104850001BE000280CD00C20002A0DD00C4C0D4B76
:104860000D480E49EA222568A84723680E48EDE75F
:10487000501E82410D32101C00930191231C0296A0
:1048800001212A1C094CA047002004B070BDC0467D
:10489000EC000020109E0000199A0000479D0000C7
:1048A000389C0000749D0000899D00008D730000FD
:1048B00070B5051C00240C4B19680C4B1E688C420B
:1048C00010DC0C206318DA0FD318021C5B105A435B
:1048D000B0180288AA4201D2591EF0E7AA4202D9B2
:1048E0005C1CECE7002070BD7808002070080020F8
:1048F00010B503248306044040069B0FC00F002C14
:1049000001D0A1B202E04C1EA14189B2002B01D01E
:104910009B0002E0002A01D004231943002801D1A2
:10492000802000E090208001084310BD70B5032571
:104930008C060D404906A40FC90F0023860700D539
:10494000ABB2060704D5A60033438026B601334335
:10495000860601D52E013343C60601D5AD012B4392
:1049600080256D00284200D02B43C50702D5802545
:10497000AD002B43002902D08021C9000B43410721
:1049800004D5A1000B43802109010B43410602D548
:1049900007490B439BB2010605D5A40023439CB2F3
:1049A00084239B0123439003034398B270BDC04608
:1049B0000410000007B56A460B7813704B785370EB
:1049C0004B8893701B0AD3700B791371CB88072126
:1049D00053711B0A9371014B98470EBD89780000F3
:1049E000F7B5254C1D1C23680190D326002B40D021
:1049F0001E1C0C3E2660002905D0204FBC46604698
:104A00003F68BF1807601D4807688446BE422AD920
:104A1000684680880C3B18802368002909D0002A4A
:104A200007D0604600689A80801A9860144B9847B7
:104A300002E000219A8099600023226893702B077E
:104A400004D50121226893780B439370ED0904D0BB
:104A50000221226893780B4393700A4A0026136858
:104A60000133136005E023601126002901D0BA1A32
:104A70000260301CFEBDC046700800207408002093
:104A8000BF7D000078080020F8B5051C0E1C141C22
:104A90001F1C002A15D00A07104BD20FD2039C46C8
:104AA00004D0211C3A1C331CE04715E0111C331CB8
:104AB000E047002810D1281C391C221C084B9847BD
:104AC0000AE0084C0849FB22084B09482568A8471A
:104AD000236808489847CF20F8BDC046E149000048
:104AE00089780000EC000020449E00002C9E00000D
:104AF000199A0000959B000037B5094B051C081C4E
:104B00000C1C9847002809D08268002A06D08388A8
:104B1000291C0092201C0022024CA0473EBDC0462A
:104B2000B148000005720000F0B58BB0049310ABE3
:104B30000024029204CB1022051C1B8806910593C9
:104B400012AB1B78211C0393BB4B1E68BB4BB71DDC
:104B500072803480381C9847B94B28789847B94BF5
:104B6000021C691C381C984704222B7874711B01A5
:104B70001343039A029C9201134333711623049A40
:104B800012345343029A1233D718BC420FD0AE4BA3
:104B9000218800930E2306AA9B180193AB4D301C6D
:104BA00001220223A8471634051EEED040E1109FD3
:104BB000002314373C1C0293029B059A934200DBAE
:104BC000B0E0A34B06AA00930E239B1801939F4DC0
:104BD000301C042101220223A847051E00D027E132
:104BE000231C123B1B78257B1A1C291C039320884D
:104BF000984B98472D076389ED0FED031D430790F0
:104C00008F4B03989847221C113A0092033A031CD9
:104C10000192291C301C8D4D079AA847051E00D013
:104C200006E1C02223885200134204D1A38A0393D1
:104C3000002B15D132E01906C90FDB0501D502237F
:104C40001943854B06AA00930E239B1801937F4DB1
:104C50000902301C01220223A847051EE6D0E7E026
:104C600080232288257F5B001A40281C0121002A0E
:104C700000D00A1C794B9847794B2D070093231CD1
:104C8000ED0FED032843203382B201936F4D301CAA
:104C900003990223A847051E00D0C9E001212388FB
:104CA0000B4211D0A07F6D4B002298476D4B021C28
:104CB0000093231C24330193644D301C6A49022362
:104CC000A847051E00D0B3E0302322881A4212D034
:104CD0000121607F0A1C614B9847644B021C0093C2
:104CE000231C22330193594D301C5F490223A847EE
:104CF000051E00D09CE0A369002B0ED05C4B06AAD9
:104D000000930E239B180193504D301C0721012264
:104D10000223A847051E00D08AE0029B3C340133E1
:104D2000029349E7301C534B9847051E00D07FE0A3
:104D30003388069A13803688049B059AF618B3B216
:104D400002933C235343109A1433D3180493049BC7
:104D50009F426DD0029B9C1C3B1CA4B2143B1C8048
:104D600003933B89002B08D1C0233A885B001A4289
:104D70001FD0029E0336B4B21BE03B7B7A89190731
:104D8000C90FC90307D07968002900D13A49201C0E
:104D90003A4EB0470AE0201C384EB047002846D1B2
:104DA000039B398918887A68354B98470028DBD0EF
:104DB0003DE0BB8A002B0AD00134A4B23C84397F89
:104DC000FB8A201C3A692F4EB04700282FD13B8820
:104DD000DB070DD500220134A4B209A9BC84BB7F36
:104DE000201C0A704A70254E0232B04700281ED19E
:104DF00030233A881A420DD000220134A4B209A906
:104E00007C847B7F201C0A704A701C4E0232B047A3
:104E100000280CD1B969002906D00134A4B2201CA5
:104E2000194B9847002802D13C3702948FE7051CA4
:104E3000281C0BB0F0BDC0467C080020D17D0000CE
:104E4000E5470000BF7D0000DD000020F177000095
:104E5000DF0000202D490000E9000020F14800009B
:104E6000E7000020E500002002800000E1000020B3
:104E7000E3000020E97600006C080020E149000012
:104E800089780000894A0000B5490000084B094AAA
:104E900018604B081360084AC3181360074A41188A
:104EA0001360032303319943054B0439196070479C
:104EB0007C08002064080020680800207408002096
:104EC000700800207FB508AC40CC051C2488CF209A
:104ED000002D0CD000290AD0002E08D0002C06D0BE
:104EE000CE38019402900096281C024CA04704B0D2
:104EF00070BDC046294B000070B50B4B061C0C1C46
:104F0000151C9847002808D08068002805D0211C6F
:104F10002A1C064B9847002004E0301C291C221C48
:104F2000034B984770BDC046B1480000BF7D0000EC
:104F30008978000070B50C4B061C0C1C151C98479A
:104F400000280BD08368002B08D083882B808288B0
:104F50008168064B201C9847002004E0301C291C67
:104F6000221C034B984770BDB1480000BF7D000074
:104F700011790000F0B585B0041C0191002929D1F8
:104F80004788184B381C261C98470836002809D03B
:104F90008068002806D0A388E288C018311C124B14
:104FA000984717E002AB9D1D00232B800F4B2A1C56
:104FB0001B68381C191C00930D4B9847009BA08858
:104FC000E2881818311C084B984760882A88009995
:104FD000084B984760882188019A074B9847002022
:104FE00005B0F0BDB1480000BF7D00007C9E000010
:104FF000354F0000F94E00007972000038B50C1CE6
:10500000074B98476588074B281C984783782620CC
:10501000DB0704D42088291C034B98473A2038BD6D
:10502000B5710000B1480000F94A000038B50D1C08
:105030000A4B141C98472D88094B281C9847220AB4
:10504000031C084C91B2002803D082880023281C3E
:1050500001E0281C0122A0473A2038BDF971000068
:10506000B1480000C172000010B5141C074B9847EE
:10507000074B60889847022381782220194003D18A
:10508000201C044B98471F2010BDC046C171000072
:10509000B1480000754F0000F0B5174D174C2A6855
:1050A000A544D223042A22D8061C154B081C0C1C2C
:1050B0009847002808D08368002B05D08288211CDF
:1050C00000921220321C0CE00E276F44391C04AAF7
:1050D0000C4B201C98471220211C321C3B8800934B
:1050E00004AB094CA0472B6801332B600023181C2C
:1050F00085239B009D44F0BD800F0020ECFDFFFF49
:10510000B1480000117900000D7300000122014B2D
:105110001A7070478E080020002210B50C235343EC
:1051200007495C58002C06D101225A50CB189860D0
:105130005C60181C03E00132042AEFD1002010BD8E
:1051400090080020F7B5174F174E3B6830689B68F2
:10515000012198470023154D2B70154B1C1D34332E
:105160000193231F1B68012B0FD12368002B0CD048
:10517000013B2360002B03D16368002B00D09847CC
:105180002368002B01D001232B70019B0C349C421F
:10519000E7D12B78002B03D13B683068DB68984758
:1051A000F7BDC046EC080020FC0A0020F20A0020EF
:1051B0009008002008B5054B054A1B6810689B68DD
:1051C000012198470122034B1A7008BDEC0800200A
:1051D000FC0A0020F20A002008B500230C4A4360B4
:1051E00013700C495858012805D1C918496800297D
:1051F00001D0107002E00C33302BF2D11378002B69
:1052000005D1054B054A1B681068DB68984708BD47
:10521000F20A002090080020EC080020FC0A002080
:10522000F8B5114E071C3378104C002B0ED101201D
:105230000F4D011C2B685B699847012333709F4217
:1052400007D12B6805201B69984702E02068094BAD
:105250009847052223685A60074B1B78002B01D121
:10526000064B9847F8BDC046DC080020F40A002031
:10527000EC080020D9510000F20A0020B5510000CE
:1052800038B5114B041C02209847104B1A78022A9B
:105290000DD10F4D0F4B281C211C9847281C0E4B7D
:1052A0009847002809D001220C4B1A700AE0002A06
:1052B00008D15A2C01D101321A70094B09481B68D8
:1052C000DB69984738BDC04621520000840F00209A
:1052D000C8080020957B00005F7B0000000B0020C9
:1052E000EC0800208152000010B50E4B1B78012BFA
:1052F0000DD10D4C0D4B20689847052223685A604C
:105300000B4B1B78002B0BD10A4B984708E00A4B3C
:1053100001201B6800215B6998470022074B1A7027
:1053200010BDC046E4080020F40A0020D951000056
:10533000F20A0020B5510000EC080020DC08002033
:105340000023F0B587B000930193914C914B201C42
:105350009847071E00D018E18F4D2E68012E24D0EB
:10536000002E03D0022E00D1AFE0EEE704ABDF1D2C
:10537000201C8A4B391C9847894B1A78012A05D181
:105380001E70884B88481B68DB6998473B78052B63
:1053900001D1043B02E0042B01D1023B2B6001222E
:1053A000824B1A600022824BBEE0804E3368012B94
:1053B00002D0022B3AD0C8E704ABD91D201C774B92
:1053C0009847774B1A78012A05D11F70754B76489C
:1053D0001B68DB699847764B04A81988C0794A1C7A
:1053E00092B21A80734B5854082AAED1DF791978DB
:1053F00058781A795C799B793F023B43009313D12B
:10540000060224020E431443301C1A1C211C6A4B52
:105410009847002805D1009A211C301C131C674CAA
:10542000A04700232B60AEE0022370E0614B201CFC
:105430001A785D78161C1A7902925A790392DA79F1
:105440009B7912021343009304ABD91D534B984729
:10545000534B1A78012A05D11F70524B52481B68D2
:10546000DB699847564904AA07320B881278554FD2
:10547000581CFA54544A009C128880B20880801A42
:10548000A04200D061E703982D0204020298354340
:1054900004430020844666463F48043306600320E8
:1054A00083430B80BA18444B281C211C98470123C6
:1054B0000193B04200D048E7434B211C1A88281CB6
:1054C000BA18009B3D4CA0473FE7384E3368012B8C
:1054D00002D0022B2AD038E704ABDD1D201C2F4B55
:1054E000291C98472E4B1A78012A05D11F702D4B85
:1054F0002D481B68DB6998472D4928780A88531C7A
:105500009BB20B802B498854022B00D01DE78022D0
:1055100033602B4BD2001988521A00998A4201D26B
:1055200000221A801A88284B1A800EE7214B201C73
:105530005E7804ABD91D194B9847194B1A78012A8C
:1055400005D11F70174B18481B68DB6998471C4929
:1055500004AA07320B8812781A485C1CC2541A4AF3
:10556000A4B212880C80A41AB44200D0EDE6002444
:105570008218BB202C6004330334A3430B800F4CF0
:10558000B3B2011CA0470123DEE6019807B0F0BDCD
:10559000C8080020517B0000C4080020717B000077
:1055A000000B0020EC080020815200008008002041
:1055B000F008002086080020193B0000A53A0000F2
:1055C000C0080020010B002084080020F8B50D4B16
:1055D000071C01200E1C984701230B4C0B4D237018
:1055E0000B4B1B78022B04D12B680A489B690321C3
:1055F00098472B68381C311C9B6998470020207005
:10560000F8BDC04621520000E4080020EC0800204C
:10561000E5080020789E00007FB5031C2C331A7823
:105620003F4B041C1A7080223E483F4992003F4B7A
:105630009847002801D140256FE03D4B2068616804
:105640009847231C3B4D08332B60A368002BF2D0F6
:105650002369002BEFD06369002BECD0A369002BEA
:10566000E9D0E369002BE6D0226A002AE3D0626A1F
:10567000002AE0D0A26A002A04D10222A18DFF32C2
:105680009142D8D00120011C984700202B68011CB2
:105690005B6998472B6832201B6998472B6801216A
:1056A0005B69002098472B6823481B6998472B6843
:1056B0002248DB6998472B6821481B689847214B93
:1056C0001860002801D1E22527E01F4E1F4D301C35
:1056D000A8471F4B18600028F5D0301CA8471D4B69
:1056E00018600028EFD01C48A8471C4B1860002801
:1056F000E9D01B4B9847201C1A4B9847051E0CD12C
:105700006B460122DC1D201C02A95242164B984711
:10571000002802D12378392BF2D1281C04B070BDA7
:10572000E5080020C8080020F2080020317B0000B6
:105730008D4E0000EC080020B80B000081520000E4
:1057400045510000FC0A00200D51000019510000D5
:10575000E0080020E8080020E9520000F40A0020D8
:10576000E13A0000FD790000C13B000008B5054B9F
:105770001B685860044B1B78002B01D1034B9847E2
:1057800008BDC046E0080020F20A0020B551000024
:1057900008B5024B1868024B984708BDE008002086
:1057A000D951000008B5054B1B685860044B1B78A5
:1057B000002B01D1034B984708BDC046E8080020E4
:1057C000F20A0020B551000008B5024B1868024BE0
:1057D000984708BDE8080020D95100000122014B7C
:1057E0001A707047F80A002008B50E4B98470E4B08
:1057F000002807D10D4A1278012A05D01A78012A0B
:10580000F3D101E0012802D01A78012A02D1002048
:10581000187005E0054B00201B78012B00D1D0301B
:1058200008BDC046415300005C0800208E080020DF
:1058300038B5FA2000240A4B00011C70094B984728
:10584000094B1A781D1C012A04D0084B9847041EE6
:10585000D02CF5D1064B98470023201C2B7038BD67
:105860008E080020A5570000F80A0020E957000024
:10587000C957000010B502780A70837844781B027B
:1058800023434B800379C0781B0203438B80002A9B
:1058900003D1024A13780133137010BDEB000020CE
:1058A00008B5031C42780078120202430A80DA78B5
:1058B0009878120202434A805A79187912020243F8
:1058C0008A80881D991D014B984708BDBF7D000047
:1058D000F7B5071C0E1C151E0193052D2ED80124AB
:1058E000221C3323AA401A4228D00B78073B092BED
:1058F0000AD9194C19491A4B1A48F1222568A847A8
:1059000031782368184823E0019B002B01D1002047
:1059100020E0164B381C00219847019B187007287F
:10592000F5D90D4D0D49FA220D4B0E482E68B047A2
:105930002B680F48391C9847201C0BE0064C074980
:10594000074B0848EC222668B047291C2368094801
:105950009847CF20FEBDC046EC000020B69E000058
:10596000E89F0000199A0000E09E00000D60000012
:10597000F69E00000A9D0000F0B50C1C1F218BB0A4
:10598000079302ABC9180F230B706B4B051C161C39
:105990009847071E072F0BD9684C69491A22694B93
:1059A00069482568A8472368684898470120C0E0EF
:1059B000002C1BD112235F43654BFB5C012B0BD1E9
:1059C00004950094019402940394201C211C221C31
:1059D000231C604DA8477BE0584C5A4B5A48584905
:1059E00029222568A84723685B48A0E02279062A77
:1059F00004D96379102B01D89A4209D94F4C514BE5
:105A000051484F4932222568A847236853488EE001
:105A1000237A042B09D9494C4A4B4B48484939222F
:105A20002568A84723684E4881E0A379072B02D850
:105A3000E379072B09D9414C424B43484049412265
:105A40002568A8472368474871E0A378002B10D049
:105A5000002E09D1394C3B4B3B4839494922256836
:105A6000A8472368404862E04048311C1C22404B54
:105A70009847079B002B05D03E48191C9A301022EE
:105A80003B4B98476378A2789B00134312225743FD
:105A90002F4ADBB2BA5C002A1CD1A079420702D59A
:105AA000079A002A03D0C20706D5002E04D1234C42
:105AB0002548234960221DE066792178E278009626
:105AC0000190E0790290207A2B4C0390281CA0478B
:105AD00000202EE0012A21D1E079420702D5079A61
